:020000040000FA
:100000000040002099580100D5580100D758010040
:1000100000000000000000000000000000000000E0
:10002000000000000000000000000000D95801009E
:100030000000000000000000DB580100DD58010056
:10004000DF580100E5290100355A0100DF580100A1
:10005000DF580100000000007D980100DF5801001A
:10006000DDD30000DF580100C59A0100DF58010010
:10007000DF580100DF580100DF580100DF580100A0
:10008000DF580100655E0100DF580100DF58010004
:10009000DF58010021950100B996010019D5000033
:1000A00029D50000DF58010000000000000000001A
:1000B0000000000000000000000000000000000040
:1000C000054B0648033310B51B1A062B03D9044B06
:1000D000002B00D0984710BD2801002028010020E7
:1000E000000000000648074910B5091A8910CB0F17
:1000F0005918491003D0044B002B00D0984710BD6D
:1001000028010020280100200000000010B5074C45
:100110002378002B09D1FFF7D3FF054B002B02D02A
:10012000044800E000BF0123237010BD2801002017
:100130000000000064C60300094B10B5002B03D07B
:100140000849094800E000BF08480368002B02D1B5
:10015000FFF7C8FF10BD064B002BF9D09847F7E713
:10016000000000002C01002064C6030028010020CC
:1001700000000000144B002B00D1124B9D46402282
:1001800092029A1A924600218B460F461148124A53
:10019000121A21F027FB0D4B002B00D098470C4B77
:1001A000002B00D098470020002104000D000B48D0
:1001B00020F09EFC21F07AF9200029002AF087F92E
:1001C00020F0C0FC000008000040002000000000FB
:1001D0000000000028010020E02F00201111020083
:1001E000C4600561466187614146C161494601625B
:1001F00051464162594681626946C16271468160D9
:10020000124B1A6802601860002070470F4B1A6882
:1002100012681A6070470D4B1A68002A01D124F049
:1002200096F9506010681860D46815695669976926
:10023000D1698846116A8946516A8A46916A8B4615
:10024000D16A8D4691688E4601207047982E002015
:1002500080235B051869034B1B7843438020C00251
:10026000C01A7047FF2D002080235B051869034BDF
:100270001B7843438020C002C01A7047002E002024
:1002800070B5084DC4012B680021181926F099F8A3
:100290002868054B00197F3000781B788342F0D224
:1002A00070BDC04644010020FE2D002010B5C3796A
:1002B0000400002B08D0064A037981791068DB011D
:1002C000C018013026F07DF80023237210BDC0460F
:1002D0004401002010B50349034824F069F8FFF7F2
:1002E0009AFFC046A43A0300ECCE020010B5124BB0
:1002F00001001A684379DB01D31818007F300478B5
:10030000FF2C08D10879C00112185278FF2A0FD0AB
:10031000887990420CD08A799B180132D2B25878F1
:100320007E2A01D08A7110BD00234C718B71FAE7CF
:1003300001204042F7E7C04644010020F82270B592
:10034000920213784D2B01D08022D2028026802089
:1003500076053469336964421440E41AC002316995
:10036000001B19F0B7FD284B284918703369E218B3
:1003700052185D421540264B264A27499A1A5218B0
:100380003169954230D38020C002401B19F0A2FD94
:10039000224B641B1870E411214BE4B21C70A120A5
:1003A000012300251F4A20491360C0004D604B689F
:1003B000002BFCD01358DBB2A342F7D21B49013308
:1003C0000B7001235360FFF743FF03780500184CBF
:1003D000FD2B0BD180235B051869164BC009C01893
:1003E000C0012818206070BD6D18C9E7FFF73CFFF9
:1003F0000378803DFD2B01D12560F4E7FFF734FF42
:10040000FD2125F0DEFFF7E7002E0020FF87FFFF2C
:10041000280100200000002070C60300FF2D0020EE
:10042000FE2D002000D00040FCD00040012E002016
:1004300044010020FFFFFF01F7B5254B254F1A7837
:10044000254B14001B7839680133E001405CFF281C
:1004500039D00134E4B29C4200D101249442F4D159
:10046000802300265B051B69DB090093E3010193F0
:100470003B68E2019D182A78280053425341F61840
:1004800025F0B5FF0023002815D1134B01341B784C
:10049000E4B201339C4200D101240D4B1B78A342EE
:1004A000E4D1072E11D923F009FFC6E7DA01AA5CCF
:1004B000002AEAD10133009A9342F7D13868019BB0
:1004C000C01825F08AFF2000FEBDFF24FBE7C046D0
:1004D000012E002044010020FE2D0020F7B507006A
:1004E0000D0001240E4B1B7801930E4B1E68019BDF
:1004F0009C4202D9FF242000FEBDE10171180B7857
:10050000FE2B09D18B78AB4206D103312A0038008B
:1005100021F0B0F80028EED00134E4B2E7E7C0469D
:10052000FE2D00204401002010B5054A0379106813
:10053000DB01C01881780022033003F0FBF910BD05
:1005400044010020F0B585B002900D001700039320
:1005500078294ED8FFF7C2FF03000400002F41D0D6
:10056000254EFF2805D03268C301D018002125F0A0
:1005700028FFFFF761FF0400FF2805D11F4920482D
:1005800023F016FFFFF747FE3368C0010190FE21FC
:10059000181825F016FF3368019AE9B2981802304E
:1005A00025F00FFF3068019B2A00C0180330029924
:1005B00007F016FF0C2023F01FFF039B002B16D023
:1005C000104B03600C4B04711B684471E4011C194F
:1005D000A378C77102338371012303726B461B7BBF
:1005E000437202E03800FF2BE4D105B0F0BD064BAA
:1005F000E7E70020F9E7C04644010020C13A0300C4
:10060000F4CC0200BC0403007405030007B501A983
:1006100003F03EFE0199FFF761FFFF2805D1054970
:10062000054823F0C5FEFFF7F6FDFFF729FE034856
:100630000EBDC046D73A0300F4CC0200880E03007A
:10064000F7B50192027A05000091002A01D1FFF767
:1006500041FEC479002C06D1214A17680279D201E3
:10066000D25D002A04D1092201201A604042FEBD59
:1006700069797E22C901791808007F30AB7900784A
:10068000D21AFF2809D12879C00138184078FF28EC
:1006900019D0C01A824200D902000198061B964266
:1006A00000D91600002E19D0009A01331019C9186C
:1006B000320021F005F8AB799B19DBB27E2B04D018
:1006C000AB71A419D4E70022E7E70023AB716B7983
:1006D000DB01FB187F331B786B71F2E72000C6E764
:1006E00044010020F0B585B00393037A0400019221
:1006F000002B01D1FFF7EEFDC379002B34D02D4A3A
:1007000003791268DB019B5C002B2DD0019B0291C9
:100710000093009B002B2CD07E22A379D71A009A3D
:10072000974200D917006079224E0133C001C018EA
:1007300033683A001818029907F052FEA379DB19C2
:10074000DBB27E2B33D10023A371FFF775FE0500CA
:10075000FF2811D12079FFF793FD002323721C237A
:10076000039A13601D3B03E00923039A13600A3BBD
:100770000193019805B0F0BD60793368C001181885
:1007800029007F3025F01DFE3368ED01581961798D
:1007900025F017FE62793368D2019B187F331B78EE
:1007A0006371029BDB190293009BDB1BB0E7A37113
:1007B000F7E7C04644010020002170B5080028F08A
:1007C0008CFE012405000C4B1B78A34201D22800AB
:1007D00070BD0A4AE3011068C0180378FE2B08D1E7
:1007E00081780022033003F0A5F8010028000FF003
:1007F000B3F90134E4B2E6E7FE2D00204401002005
:1008000073B501A903F044FD0199FFF767FEFF28C6
:1008100005D10F490F4823F0CBFDFFF7FCFC002565
:100820007E260D4B1C68C301E31859789B78023370
:10083000DBB2C201A2187F321078FF2804D1C81A97
:10084000401928F08BFC76BDF31AED180023F0E771
:10085000D73A0300F4CC02004401002010B5024B4B
:10086000024A28F035FF10BDAD020000ED02000085
:1008700070B50C0005000B6805495A6824F038F87B
:10088000216828004031220010F0B4FB70BDC04642
:10089000DAB70300136870B5002B12D10568EE6B50
:1008A000B34200D170BD9C002C19246CA14201D030
:1008B0000133F5E7591CF5D002339B001B58136038
:1008C000F0E70349034823F073FDFFF7A4FCC0469B
:1008D000E63A030088C90200F0B585B00C00032594
:1008E00003F04AF825400700002D03D11E4B226873
:1008F0009A4205D01D491E4823F05AFDFFF78BFC94
:1009000003AA02A9200028F0FFFD029E039B3000ED
:1009100010308000019323F06FFD04003C22290079
:1009200020F060FF134B67602360134BE663A36006
:10093000124BE360124B6361124BA361124BE361F4
:10094000124B2362124B6362124B6363AE4202D1BD
:10095000200005B0F0BD019BAF00D85903F00CF8A2
:10096000E71938640135F1E7180B0300833B0300F6
:1009700074CE020098EC0200710800009909000092
:100980007551000035520000950800002953000001
:10099000D1510000B4C80200F0B51D0085B0C36B92
:1009A00000AFFB607A608B18FA6806000C009A4270
:1009B00005D02B492B4800F0E7F8FFF72CFCFB682B
:1009C0008B424AD09A00130069460E33DB08DB00E5
:1009D000CB1A9D4618000021BB6020F003FF0023C6
:1009E000A200934210D1F9687A688C4662447A601A
:1009F000ED187B689C420CD3B968F86804F0FAFBE8
:100A0000BD46066005B0F0BDE858B968C85004336B
:100A1000E7E7286802F0B0FF00210200F36B3B60BB
:100A20003B68994204D110490E4800F0ADF8C4E784
:100A30008B00F018006C824201D00131F0E70131E7
:100A4000F1D0B968CB181968002901D00749EBE744
:100A50006A6802341A600835CBE7BD60CCE7C0464F
:100A6000FA3A030074CE0200333B0300543B030008
:100A7000F7B50D00110000220600009228001F00AB
:100A80000B4B0CF0E7FA102023F0C3FC041E08D136
:100A9000084A094B094CDA61002326602000A36054
:100AA000FEBD3900280004F0A5FBE060F4E7C04675
:100AB000FFFF00006CE40200902E0020A02E00201A
:100AC00010B5013810C904F095FBE060004810BD76
:100AD000880E0300F8B57F2553B204000E001700FE
:100AE0001540002B0ADB6B1E012B07D80B685868DA
:100AF00023F0E6FC0100200023F02FFE022D0ED192
:100B00000F49200023F029FEF368002B02D05A6819
:100B1000002A0CD10B49200023F01FFEF8BD002D48
:100B2000F2D03A00F168200004F0F8FAF6E7012A62
:100B3000F7D100229968200006F030FFEEE7C046AA
:100B400079960300857F0300C36803485A68002A2A
:100B500000D098687047C046880E0300136810B52F
:100B60001400002B03D17D2902D1C368136010BD8E
:100B7000044B02689A42FAD1BA29F8D1FFF7E4FF90
:100B80002060F4E7B4CD02000EB470B5050087B064
:100B9000102023F03EFC041E0BD11B4B1B4A1C4CA7
:100BA0001D619861DA61200007B070BC08BC03B019
:100BB0001847002105608160012004F01BFB0B9B9E
:100BC0000500E060002BEED02521180022F03EF851
:100BD000061E09D10B9822F0EBF8320001000B98A9
:100BE00002F0A8FEA860DEE702A8102126F00BF8AC
:100BF0000CAA0B9902A8019208F042FF02A905482D
:100C0000E56802F061FEEDE7902E00206CE4020042
:100C1000A02E0020C0FE020010B50300820708D1FC
:100C2000064A0168914204D1054AD96801209142DF
:100C300003D00449180006F0B3FC10BD98EC020084
:100C4000710A0000C4C9020010B5040006F08EFE4F
:100C5000044AC1682300914200D0236900229A60AF
:100C600010BDC046710A0000F7B5050016000193DB
:100C70000F0006F07BFE174BC2682C009A4200D092
:100C80002C69A568002D13D10C2023F0C2FBA060B5
:100C900000280CD00323E580A380E288A16893009C
:100CA0000332E280019ACB181F605E609A60F7BD44
:100CB000E388A18802338B42EFDB033189000122F4
:100CC000280023F0BCFB0028F1D0A388A0600333E8
:100CD000A380E2E7710A000070B506000D00140061
:100CE00006F044FE074BC1683200994200D03269D9
:100CF0009368002B02D12B60236070BDD2882A60DC
:100D0000FAE7C046710A000070B50600080025F039
:100D1000F4FF050023F026FB041E06D12A00084933
:100D20000848FFF731FFFFF776FA300023F067FF3E
:100D3000012102000300200010F008F970BDC04638
:100D4000913B0300CCCA020010B5040025F0D5FF8A
:100D500023F0F0FB01280BD00649200025F0E7FF27
:100D6000200025F0CAFF23F0E5FB022800D0002078
:100D700010BDC046E23B0300F0B59DB000AF0C686B
:100D8000032859D9CB680025FB60042801D00D69E0
:100D90006D101C232000F91803F07AFA7861002DF9
:100DA0005BD0A04C6E2160680CF0D4F8060060683F
:100DB0000022962104300BF09BFA1823FA18D11860
:100DC0000400300003F064FA3B6B013D0100C318DE
:100DD000002C05D1994203D2013B1A782E2AF9D171
:100DE000013D31D2FE695C1A2500002E01D0751C30
:100DF00065192B006A460E33DB08DB00D31A9D46CB
:100E0000220018003B6120F05BFC002E08D02E234E
:100E10003A69601C135510187969320020F050FCB3
:100E20002900386900F094F9012810D17E497F48E3
:100E300023F0BEFAFFF7EFF97D4B0025FB60A8E732
:100E4000013B1A782E2ACBD09942F9D3C8E7062461
:100E50003B69C0000443FD617B61200002F08CFD12
:100E600004F032F9061E15D02E21786921F0EEFE2D
:100E700000280BD06E4BFA689A4207D17B69C11AE1
:100E8000180000F065F904F01FF906003000BD46B7
:100E90001DB0F0BD182318200125FA18D2183818F3
:100EA000103B4021C01825F0CDFEBE603E61FB69BD
:100EB0009D4205D95E4BFA689A42E7D1BE68E5E7E4
:100EC0009D4204D07B695B5D2E2B00D097E029000A
:100ED000786900F03DF918220823BA183860D01854
:100EE00025F0D9FE002817D12A0008237969183087
:100EF0003818C01825F066FE18220823BA18D01832
:100F0000FFF722FF78607B68002B14D13A684949CB
:100F10004648FFF739FE8DE718220823BA18D01883
:100F20002F2108F059FD3B693969EA1A7B691820BD
:100F300059180823DCE7386804F0C6F8041E48D1C5
:100F4000386804F087F8FB6904009D4208D13A4BE9
:100F5000FA689A4204D15E226E21806828F014F863
:100F60007B68012B55D118220733BA18D01825F009
:100F70008BFE18220823BA187860D01825F08BFE53
:100F800000220100786802F0D5FC12210200200046
:100F90000FF056FA18220823BA18D0182F2108F09B
:100FA0001BFD18220823BA18D018244925F0BFFECB
:100FB00018220823BA18D01825F09FFE23F0BAFA99
:100FC00002281ED018220823BA180C21D01825F0A8
:100FD000EEFE002E0CD07A693B699446E91A634410
:100FE000180000F0B5F82200010030000FF028FAD8
:100FF000BB68002B00D1BC6026006B1C3B61013537
:1010000055E718220823BA18D1182000FFF77CFEF4
:10101000D8E718220823BA18D1182000FFF774FE69
:10102000D7E7C046902E0020A63B0300CCCA0200A2
:10103000880E0300C53B030004DB0200DA3B03001B
:10104000074BDB68002B01D1180006E05A6882428A
:1010500004D8801A04308000C05870471B68F1E73C
:10106000902E002070B5114D0400EB689868DB6885
:1010700083420FD30230C00023F0BEF9EB685A68F8
:10108000D96803609B6852185B008360002342604C
:10109000C360E860EA68D3685068591C04339B0059
:1010A0000138D16040189C5070BDC046902E002081
:1010B000074B4118884204D3D8B2002800D1013030
:1010C00070475A01D318027801305340F2E7C04606
:1010D00005150000034B044ADA6000228C331A60C5
:1010E0007047C046902E00207CCF0200F0B585B03E
:1010F00001900E00FFF7DCFF144B0290DC68002C1F
:1011000001D120001EE0270010373D00E3689B005E
:10111000FB180393039B9D4201D32468EFE72868E3
:10112000029A03789A420FD143789E420CD1023042
:101130003200019920F09EFA002805D1ED1B60686D
:10114000AD10281805B0F0BD0435E3E7902E00205F
:10115000F0B585B002900191FFF7C8FF002858D183
:101160002F4C019B27008C37DD1C3B68002B17D0D0
:1011700026002C4A9036126831680392AA188A42D7
:101180000ED902006918180023F059F903900028BD
:1011900041D1244B3868196823F044F9039B3B6024
:1011A00023008C331B68002B17D12E00802D00D21A
:1011B00080263000270023F02CF98C373860002877
:1011C00004D1280023F018F92E0038602300903352
:1011D0001E602300002294331A60230094331A689F
:1011E0008C342468AD1801990298A4181D60FFF78B
:1011F0005FFF6B461B7920706370019AA01C0299F7
:1012000020F05EFA0022019B2000E3189A70FFF79D
:1012100029FF05B0F0BD33685B193360C0E7C046F5
:10122000902E0020242F0020F7B51D00160000236B
:10123000070003600B6033602B60174B0091DC6884
:10124000002C02D0154B9C4204D133682A68D31875
:101250002B60F7BD3B6801333B60E268009B94461E
:101260001B68009A0193634413602200E368103204
:101270009B00D3189A4207D3200000F0C1FC2B68D2
:10128000246818182860DBE702CA30684978033000
:1012900009183160EEE7C046902E00207CCF020096
:1012A0000C4B70B5DC68002C02D00B4B9C4200D17B
:1012B00070BD2600E36810369D007519AE4201D35B
:1012C0002468F0E704CE05490232054823F010FBFC
:1012D000F4E7C046902E00207CCF0200EC3B0300D8
:1012E000FCE0020010B50B790349002B00D1034943
:1012F00023F033FA10BDC046E5400300DD40030093
:1013000037B50C00110000221D00009201232000BF
:101310000BF0A0FE054B002C06D0286806F04CFD13
:10132000034B002800D1014B18003EBD04DB020036
:101330000CDB020030B58DB005006846FEF750FFAB
:10134000011E10D12A1D012028F005F90122EB68A9
:1013500004005B1001335B001343EB60FEF756FFA4
:1013600020000DB030BD0198054A0368934205D0B6
:10137000044A00249342F3D0FEF74DFF0024EFE728
:10138000B4CD020044CB020010B50400102023F0BD
:1013900033F8044B03602368436063688360012370
:1013A000C36010BD50DB0200F7B5002806D13A4AF1
:1013B0003A493B4823F09CFA3A48FEBD0D682800A4
:1013C00006F0D4FA43680600EF2B04D16D682800BC
:1013D00006F0CCFA06000023334AD9008858A84208
:1013E00005D1521851682E4823F0B7F9E4E70133CC
:1013F000602BF2D12D4B2A4C9D4201D09E4202D14E
:101400002B492000F0E72B49200023F071FA00213E
:10141000280006F0DDFA72682749200023F068FAF8
:10142000264B9E4228D1280023F0E9FB27F0BFFD80
:101430000025061EC0D073689D42BDD2B268EB0085
:10144000D3181F68002F15D05B681D492000019339
:1014500023F04EFA0021380006F0BAFA19492000AC
:1014600023F046FA0021019806F0B2FA164920004E
:1014700023F03EFA0135DEE7144B9E4200D12E00E8
:10148000B06B002898D0830796D1114B02689A421E
:1014900000D091E7CAE7C0465957030007B60300DA
:1014A000FCE00200880E03008CDB02007C170300C6
:1014B000D05B0300EC5B0300F45B0300FCE3020081
:1014C00092BD0300045C03008DB1030098EC0200A0
:1014D000E802030010B588B001AA69460400FFF7CE
:1014E000FBFB009B022B2AD902AA322104A808F098
:1014F00067FA019B13495A6802A823F0F9F9200002
:1015000006F034FA104BC2689A4210D123680F4992
:101510005A6802A823F0ECF9E368002B07D05A6858
:10152000002A04D00022996802A806F037FA04A81D
:1015300025F0E3FB13F068FA04A825F08FFB08B050
:1015400010BDC046977D0300710A0000A07D030016
:1015500070B5050090B0002804D11F4821F08EF826
:1015600010B070BD04A8FEF73BFE041E19D12E6812
:10157000290001A8012204F085F82300220031008F
:1015800001A809F0CBFE0400032013F0BBF92000F2
:1015900027F0D2FF0120404213F0B4F9FEF736FEE7
:1015A000DEE70120404213F0ADF905990B4806F043
:1015B00019FA059806F0DAF90949040005F0F0FF78
:1015C0000028CDD10749200005F0EAFF0028C7D147
:1015D0000598FFF77FFFC3E76A7D0300FCE0020088
:1015E00038CE0200BCCB020037B52A4B01AA1A60E4
:1015F0000AF034F8E120C0000AF044F8264B2748EE
:10160000C11800F0D7F80EF031FD13F059F904F0CD
:10161000A9FF12F013FB0023214C224DA3672B7866
:10162000012B0BD1F8239B021A784D2A1AD15A7834
:10163000502A17D159881C4822F06AFF2B78002BBA
:1016400024D100F039FD0028F8D0184828F082FD98
:1016500008220021164820F0C5F80023636727F010
:1016600067FF37BD002307211A001248FEF76AFF03
:10167000002802D022F056FFE0E74C2001220E495C
:10168000FF300FF0E3FB27F081FFD7E700F074FD98
:10169000D9E7C04624270020DC25000048010020AF
:1016A000902E00200601002004E00300AC7D030022
:1016B000FC2E0020A47D03006CE4020007B500F0BE
:1016C00007F9054B01A81968091A890800F0B8F84C
:1016D00000F012F907BDC04624270020F7B5314FAE
:1016E000AC3701972F4A3049FC32D36B8B4200D87C
:1016F000F7BD0325043BD3631A682A4B511CA4335E
:101700001E680C008B08F35C2C4064002341881A8F
:101710002B400131022BF4D00326019B12011B68E0
:1017200000019A181F4983080093009B002BD9D011
:101730000F23106818422BD11C4B1B68984227D3EB
:101740000C00B0342468A04222D20F24C01AC31760
:1017500023400C001B181B111D00A434246898089A
:101760002418207835406D008446284130400128F7
:101770000ED13700AF403D0067463D4325700D0058
:10178000FC35EC6B0A4FBC4207D2201DE863236096
:10179000009B0432013B0093C7E70B00B433186091
:1017A000F6E7C046902E0020482F00203C2F002056
:1017B000C82F00200F23994370B506000D00081AAA
:1017C000412118F087FB104C02002300A833186059
:1017D00023002100A4331E608301EB1AAC310B609F
:1017E00023003000B03300211D601FF0FBFF2200FA
:1017F0000023FC3253642200FE32D38701223F33A0
:10180000FF33E25270BDC046902E0020024BFE33E3
:10181000DA8F0132DA877047902E0020024BFE33B8
:10182000DA8F013ADA877047902E0020034BFE339F
:10183000D88F431E9841C0B27047C046902E0020FA
:10184000F7B50024032500900191019B9C4200D133
:10185000F7BD009AA300D3580F2213422DD11A4A84
:101860001100AC3109688B4227D31000B0300068FA
:10187000834222D20F20591ACB17034010005B1865
:101880001B111F00A43000689908401801782F40F0
:101890007F008C463941294001290ED12E00BE40DF
:1018A00037006646374307701700FC37F86B074E62
:1018B000B04206D2021DFA630360FFF70FFF013446
:1018C000C3E7B4321160F8E7902E0020C82F002043
:1018D00010B5FFF79BFF064800220300B4331A60DF
:1018E0000300044AFC332621DA63FFF7A9FF10BD89
:1018F000902E0020482F0020F8B503262C4C002500
:101900002200B4321368AB420FD102221900032720
:1019100094462200A83212689200914226D30023F6
:10192000FC346364FFF77AFFF8BD23001560214A99
:10193000FC33DA632300A8331B689B009D42DDD291
:101940002200A4321268AB08D35C2A003240520055
:1019500013413340032B07D12200FC32D36B191DF6
:10196000D1631D60FFF7BAFE0135E3E72000A43024
:1019700000688A08801802780D0016003D406D004E
:101980002E413E40022E09D0032E0BD0012E07D14E
:101990003B00AB409A430270012301E0002BF7D1DA
:1019A0000131B6E76346AB409A4302700023F7E784
:1019B000902E0020482F0020274AF0B51300110078
:1019C000B033AC3109681B6803265B1A1100036051
:1019D0000023A8310C681900A432156843608360A5
:1019E000C36003614361A400A14206D143681B01A7
:1019F000436083681B018360F0BD0F008A08AA5C06
:101A000037407F003A413240012A0CD8012B0ED1D9
:101A1000C7680137C7604769BB4200D94361012AE3
:101A200010D0002A09D0022A10D00131DCE7022BA5
:101A3000F1D1076901370761EDE7836801338360FE
:101A40001300F2E7436801334360F9E7426801336A
:101A500001324260E9E7C046902E0020F7B5434FBF
:101A60000F303B00FE33DD8F0409002D02D000252E
:101A70002800FEBD002CFAD09F235B00F95A4A4291
:101A80004A4101923A00A83212683B0094463A005B
:101A90003026FC33A4325B6C1068634507D3019B8E
:101AA000002BE4D1FFF70AFE01230193EAE70321AB
:101AB000C25C0A422AD10135AC4228D89B00591B8E
:101AC0004C1C012D04D13D005A1CFC3592086A645F
:101AD000A208801826000322012516407600B54092
:101AE0000678023135433E000570A43601928B42E0
:101AF0002CD23A00AC321568210101336D181A1B43
:101B00001201002128001FF06DFEB1E700250C2115
:101B10000A4205D10135AC4203D89B000133CEE720
:101B20000025324205D10135AC4203D89B00023377
:101B3000C5E700253F218A4305D10135AC4203D8D2
:101B40009B000333BBE700250133A6E70D00326895
:101B500088081018019A0131154002226D00AA4030
:101B60001500027815430570C1E7C046902E00208D
:101B7000224A30B51300FE33DB8F002B3CD10F21FE
:101B8000084239D11300AC331B68984234D3140097
:101B9000B0342468A0422FD2C31AD8170840C01806
:101BA0001300001103250400A4331B6881085B5C4B
:101BB0002C40640023412B40012B1DD11300FC332A
:101BC0005C6CA14200D259640321A43214688308DA
:101BD000E31804000D000C406400A5401C7801309F
:101BE000AC431C7014688308E35C04000C40640080
:101BF00023410B40022BE9D030BDC046902E00207F
:101C000070B5020004000F2500202C4084422BD127
:101C1000164920000B00AC331B689A4224D30800FD
:101C2000B03006682000B2421ED2D21AD3172B4021
:101C30009B18A4311B110D689A08A95C1800032297
:101C40001040400001412000114001290CD15C1CD2
:101C50002600A108695C164076003141E01A114067
:101C600001340229F4D0000170BDC046902E00203E
:101C7000F0B5070062480026030085B00292FE33EB
:101C8000DA8F0D00B24206D1B74207D139002800E1
:101C9000FFF7E4FE0600300005B0F0BD002904D1D6
:101CA0003800FFF765FF2E00F5E70F243B00160014
:101CB0002340F0D10200AC3212681E009742EAD3F2
:101CC0000100B03109688F42E5D2B91ACA17224023
:101CD0005218121100920200A4321268009C019264
:101CE000009A019992088A5C0321214049000A4127
:101CF00003210A40012ACED129000F310909A83059
:101D00008C460168033689000391210014000131DB
:101D1000039A914212D201988A08825C08003040EE
:101D2000400002413240022A02D101340131EFE782
:101D3000002A03D10133E2189445F7D8644501D154
:101D40003E00A8E7644521D9009B0326634419009F
:101D5000009B0800E218A4239C46294B9C44634640
:101D600005001B6884081C19330035406D00AB402A
:101D7000257801309D4325709042F0D1204B890891
:101D8000FC335A6C9142DBD25964D9E71B199C454C
:101D900023D8032502261A49009BA431E318019198
:101DA000009A6244934209D36346191B090120013A
:101DB0000A00381800211FF015FDC1E7019918002D
:101DC00009689A088A1831002840400081400800BC
:101DD0001178013308431070E2E7029E002E00D113
:101DE00059E700212800FFF739FE061E00D152E70F
:101DF000220139001FF064FC3800FFF7B9FE4AE702
:101E0000902E002010B58AB004A8FFF7D5FD069BE0
:101E1000094C03930093049A059B0849200022F083
:101E200067FD099B079A039300930549089B2000CF
:101E300022F05EFD0AB010BDFCE00200F97D030057
:101E40001C7E0300F8B53E4D3E4F2B00AC331A68A4
:101E50003D49380022F04CFD00242B00A8331B68BC
:101E60009B009C4223D23F22144230D12A002600FC
:101E7000A43210680321B208825C314049000A4153
:101E800003210A4202D10136B342F3D1321B7F2A29
:101E900012D992092D49380022F02AFD34003F233F
:101EA0009C432B00A8331B689B009C4204D3380042
:101EB000274922F052FCF8BD2A00AC3212682301F7
:101EC000D2181203120B2349380022F011FD2A0008
:101ED000A4321268A308D35C0322224052001341AB
:101EE000032213407132022B23D0073A032B20D058
:101EF0002E22012B1DD12B00AC331B682201D3589D
:101F0000154954228B4214D01449083A8B4210D000
:101F10001349083A8B420CD0124902328B4208D046
:101F20001149043A8B4204D010490B328B4200D045
:101F30001B320F49380022F0DBFC01348DE7C0462C
:101F4000902E0020FCE00200BA7D0300D57D030046
:101F50008DB10300F17D030074E40200180B03004F
:101F6000E8020300F0EC02008CDF0200FCE3020058
:101F7000EA86030010B5040009F07AFB074B020063
:101F80009C331B680649074822F0B2FCFFF73AFF72
:101F9000012C01D1FFF756FF034810BD902E002001
:101FA000507E0300FCE00200880E030010B5FFF72E
:101FB00035FC014810BDC046880E030010B5FFF780
:101FC00025FC014810BDC046880E030010B586B040
:101FD000040005AB04AA03A902A8FFF725F9059B95
:101FE000029A0193049B064900930648039B22F042
:101FF0007FFC012C01D1FFF753F9034806B010BD57
:10200000657E0300FCE00200880E0300F0B593B08B
:10201000060006A80F001400FEF7E2F8051E2BD1FB
:102020003368310001263A0003A8019303F02AFB2C
:10203000A3082A003340019903A809F06FF90500AD
:10204000032012F05FFC280027F076FA01204042BE
:1020500012F058FCFEF7DAF8344203D0310013488E
:1020600012F084FC012501210C4202D00F4812F02D
:102070007DFC280013B0F0BD0120404212F042FC6C
:1020800001210C4202D0094812F070FC079805F0BB
:102090006DFC074905F084FA051E04D1079905482F
:1020A00005F0A0FCDFE780256D00DCE7847F0300FE
:1020B00038CE0200FCE0020030B585B02021684631
:1020C0009625802424F09FFD6D006400244828F0AC
:1020D00041F8684624F0CDFD224828F03BF812F084
:1020E0002DFC0128F2D002280BD11F4828F032F82D
:1020F000684624F0B3FD012200201C4B1A7005B085
:1021000030BD032803D1684624F0B3FDE7E7042877
:1021100004D0C1B2684624F001FEE0E7144828F07C
:1021200019F8019A002A08D10F4828F013F86846D8
:1021300024F094FD80204000E1E70023029928006C
:102140000AF02AFA002803D10A4820F095F9C0E7DE
:1021500001221100FFF75AFF2042BAD0CFE7C04654
:10216000597F0300A28703008CB103000601002001
:10217000747F0300777F0300F0B587B0202102A8A9
:102180009625802424F03FFD6D006400444827F02C
:10219000E1FF444827F0DEFF02A824F06AFD42492F
:1021A00002A823F000F801280AD1404827F0D2FF06
:1021B00002A824F053FD00203D4B187007B0F0BD7D
:1021C000022803D1394827F0C5FFDFE7032801D1F2
:1021D0003648DFE7042808D1344827F0BBFF02A8BF
:1021E00024F03CFD80204000E8E7052835D1314847
:1021F00027F0B0FF02A824F03CFD12F09FFB6B46D5
:10220000C1B2DE1D31700329E2D0042916D127485E
:1022100027F0A0FF012602A824F036FD070002A83F
:1022200024F039FD00230200390028000AF0B4F937
:1022300000282CD1204820F021FAADE702A824F094
:102240006DFD33780D2B03D11C4827F083FFD4E7B5
:102250000121300012F08AFBCFE702A824F01BFD19
:10226000002899D002A824F048FD0CF057FB002864
:102270000BD00A2102A824F051FD114902A822F036
:1022800092FF0328A4D00428ECD10026C3E706223D
:102290003100FFF7BBFE204200D17DE78EE7C0464C
:1022A000AD7E0300F27E0300187F03008CB10300B3
:1022B000060100201D7F0300124003004D7F030034
:1022C000547F030010B50400002906D0044B8A6B2C
:1022D000036009680023FEF7C7FC2000FDF79BFFA1
:1022E000F0CD0200F0B587B0039202934718002AA0
:1022F00002D0023A222A31D80400BC423CD22078D3
:1023000007F0C8FB009000282ED123782B2B2DD16D
:102310000134391B200003AA22F0A5FC23181C005D
:1023200000250193BC422BD22678300007F0CAFB6F
:10233000039B002822D032002F3A9A421EDC303E06
:102340000399280009F0A0FF002842D1039B5D43B8
:10235000AD196B006B403CD40134E3E722492348BC
:1023600022F026F8FDF757FF0134C6E72D2BD0D118
:1023700001342C3B0093CCE70023FBE7102B10D05B
:10238000009B002B15D101236D001D43019B9C4236
:1023900012D11749039A1548FEF7F6FB0299FFF789
:1023A00091FF20231E433300613B052BE8D8573EA5
:1023B000C6E76D42E7E70134BC4205D2207807F05A
:1023C00069FB0028F7D1E4E7BC42E2D1280007B05E
:1023D000F0BD019B009A0593F91A05A8039B26F00E
:1023E000E3FE059C0500D1E7BD7F0300ECCE0200B3
:1023F000E07F0300F0B504008BB006920993471804
:10240000BC4255D2207807F045FB0190002837D117
:1024100023782B2B36D1019B01340493BC4200D38B
:10242000D6E0202322781A43692A32D1A21C97428F
:1024300000D8EBE062781A436E2A00D0E6E0A2787A
:102440001A43662A00D0E1E0E21DE61C974214D947
:10245000E2781A43692A10D122791A436E2A0CD1E4
:1024600062791A43692A08D1A2791A43742A04D1DD
:10247000E2791343792B00D10536FF25ED052BE0DA
:102480000134BDE7019A04922D2BCAD101342C3BB3
:10249000C3E76E2A10D008940026644B35000793DA
:1024A000002301960293BC4220D3002306937BE0D5
:1024B000002308940493EFE7A21C974200D8A5E0FC
:1024C00062781A43612A00D0A0E0A27813436E2BF1
:1024D00000D09BE0564DE61C049B002B02D08023CD
:1024E0001B06ED18B44279D1524989E0631C03936D
:1024F00023781A00303A0592092A2CD8022D04D1EB
:102500000A235E43B618039CCDE7012D15D105982B
:1025100018F0D4FE079918F08DFB011C029818F0F2
:1025200007F8029007981AF05FFC434A434B19F0F2
:102530004FFE1AF0ABFC0790E5E74149029818F00E
:1025400079FB041C059818F0B9FE211C17F0F0FF68
:1025500000250290D7E7002D03D12E2B03D10125B2
:10256000D1E7022D18D020221A43652A14D1039BEB
:102570009F4204D963782B2B06D1A31C0393039BA2
:10258000BB42B1D00225BEE702252D2BBBD163197A
:10259000039301230193F2E7069A002A04D0202234
:1025A00013436A2B81D1039C019B002B00D0764200
:1025B000300018F033FE011C21481BF0D1FA0299BB
:1025C00018F038FB069B2600051C0193089C83E746
:1025D000002308940026029367E70136BE4205D225
:1025E000307807F057FA0028F7D17DE7BE4200D0D7
:1025F0007AE7099B002B02D1019B002B0DD01149DA
:10260000114821F0D5FE1099FFF75CFE049B002BCA
:1026100000D169E72600002561E7032302209D43DE
:102620000A4B2843C0180BB0F0BDC046CDCCCC3D02
:102630000000C07FA37F03009A9999999999B93FA7
:1026400000002041867F0300ECCE02000000808065
:102650000022104B10491A6003001233FF33411857
:102660005A701A7004338B42FAD101000300002221
:1026700009310833FF311A709A705A70DA700433D6
:102680009942F8D1C3237F229B00C254034A044BD2
:102690001A6070472827002011030000747F030090
:1026A00004000020F0B500267E24330031009A009B
:1026B0008218FF32577C7F2F44D0927CB618F6B236
:1026C0005A1CEF2E2BD9C1267D25B600861937005E
:1026D000AC46D2B2944516DA92008218FF32517499
:1026E0009174D17411757D220233DBB29A4211DAF2
:1026F00000269A008218FF3254749174D1741175B7
:102700000133DBB2D3E73D68043FBD6001256D4274
:10271000AC44DFE73568013A7560043EE6E77D2F9B
:10272000EED8094DEF5D01252F42E9D0D3B2C12289
:102730007D26920082189E42DADB1568013E5560C4
:10274000043AF8E7F0BDC046E880030070B5012206
:1027500040240F49531EDBB29B00C318FF335D7C3E
:102760007F2D13D04D5D25420DD05D7D7F2D0AD08C
:102770004D5D7F2D07D9DD7D002D04D06EB2002E7A
:1027800001DB0135DD740132D2B2E3E770BDC04632
:10279000978003000300F7B500214B4A1333FF3342
:1027A0008218197004339342FBD1FC2300249C4609
:1027B0002200844453B2002B04DA444A444B0020E4
:1027C0001A6008E063461F69BC4205D37F23443288
:1027D000920013540120FEBD6346DE68355D602D16
:1027E00001D9203DEDB2611CC9B28F424FD0735C5C
:1027F000602B01D9203BDBB2232D4BD1303B092B81
:1028000001D9344ADAE70234E1B28F4204D8FF2B0F
:10281000F7D843700C00CDE7745C2500303D092DDE
:10282000F5D80A256B430131303BE318C9B2ECE718
:102830000136512E2FD10023274C1F5DDEB22A2FE7
:102840000CD1264FFF5CAF4208D19300C318FF3371
:102850005E74447801321C75D2B2DBE70133512B30
:10286000EBD11F4C493B08342678AE4207D0013CDF
:10287000002B01D11B4AA1E7013BDBB2F4E7002B9F
:10288000F8D014004334A4000419A370C2E7232D28
:10289000B7D000230026F7B20197104FF75DAF4283
:1028A000C6D10D4FF75D2A2FC2D09F42C0D16946D5
:1028B00093000979C318FF33597441780132023407
:1028C0001975D2B2E1B2A5E7120300000880030037
:1028D000040000201A80030027820300D681030031
:1028E000788203002880030010B51130084A094996
:1028F000FF3003787F2B00D110BD02240457002C39
:1029000003DCCB5C43700430F3E7D35CFAE7C046EA
:10291000868103003681030084460023F0B585B02C
:102920009F0067443800FF30417C7F2901D105B00A
:10293000F0BD0224544A525C224202D10133DBB280
:10294000EEE70124224246D11A190C19E4B2009490
:102950004E4C7D2564186478D2B20194C47C007D0D
:1029600002940390C120800060440400954228DA5C
:102970006C46920024786244FF3254746C46247989
:102980008D1C94746C46247AEDB2D4746C46247B0E
:1029900014753E4C9A1C61183C00FF348E78217DE2
:1029A000E77C00917D21D2B291420FDA920062441D
:1029B000FF3255749674D7746946097803331175DC
:1029C000BDE72668013D6660043CCFE70468013935
:1029D00044600438E8E71A000132D2B210006446BD
:1029E00044308000005D0028F6D05A1C7F2809D0B2
:1029F0000825254C245C2C4201D0D3B290E7243822
:102A00000128FAD93C00481CC0B200901F48FF348E
:102A1000401840787D260190E07CD2B20290207D63
:102A20000390C120800060440500964222DA6D4682
:102A300092002D786244FF3255746D462D79134E05
:102A400095746D462D7AD5746D462D7B15758D1C4C
:102A500071188F78217D9A1C00917D21E67CD2B27D
:102A6000EDB291420BDA92006244FF3255749774D2
:102A7000D674A1E72F68013E6F60043DD5E7046876
:102A8000013944600438ECE7978003003681030085
:102A9000F7B500218B00C3181A00FF32547C9C4606
:102AA000002C02D10131CBB24AE07F2C00D129E1C8
:102AB0001026954B1D5D4B1C35422BD0AD06ED0FFE
:102AC0002C00D67C177DC1227D2514349200019400
:102AD000DBB282189D4218DA6A469B001279C3184D
:102AE000FF335A740022DE749A741F756246FF32F7
:102AF000547C4B1C352C00D0C6E0517B834C615C70
:102B0000490700D492E0102187E01468013D546029
:102B1000043ADFE74E2C1ED118210D25D47C5574C4
:102B2000167DC1229200DBB2821870359D420DDA0B
:102B30009A008218FF3251740021D4749174167572
:102B40001900A7E71B21E8E71C21E6E71768013D0C
:102B50005760043AEAE74F2CF4D0502CF4D06DB211
:102B6000002D2CDAD57C002D29D0DBB21D00443598
:102B7000AD002D5C002D22D18E1CF5B20195AD006B
:102B80004519FF356F7C7F2F19D05F4EF75D7F2F82
:102B900015D9EF7C002F12D0C1227D21920082181E
:102BA000019C8C4206DD1F226A740022AA74EA741A
:102BB0002A75C5E7146801395460043AF0E74B1CE4
:102BC000172C2CD1557B4C1EE4B2452D1CD12A2349
:102BD0005373230043339B001B5C4B4AD55C4B1C57
:102BE0007F2D23D90134E4B2A4000419FF34617CA1
:102BF00000297FD0525C7F2A18D9E27C002A15D1A7
:102C000062461E21FF3208E0392D01D12C23DFE777
:102C10003D49495D7F2909D91221517406E0182CDC
:102C200008D1517B384C615C7F2901D8DBB287E742
:102C30001321F2E7202C04D1517B3C29F6D1262127
:102C4000EBE7482C15D1547D7F2C02D14B245474D2
:102C500003E02D4D2C5DA406F8D5547C2A4D2D5D46
:102C6000ED0700D442E7557B202D3CD10C3C547439
:102C7000DCE73C2CF1D1517D7F29D7D0224C615C1F
:102C80008906D3D43F21C8E72A2C17D1D17C147DE3
:102C9000C1227D259200DBB282189D4209DA2B25E4
:102CA0009A008218FF3255740025D17495741475FA
:102CB00046E71668013D5660043AEEE72C2C12D127
:102CC000D17C147DC1227D259200DBB282189D4209
:102CD00004DA9A008218FF322D25E4E71668013DD8
:102CE0005660043AF3E7452C02D0392C00D0D9E6DF
:102CF0000C006EE7617D7F2998D0525C7F2A00D955
:102D00007EE793E7F7BDC04697800300E8800300A5
:102D1000F7B505000022130044339B005B5D7F2B59
:102D200041D05E4CE35CDB075FD51300511EC9B296
:102D3000443189005A4F6918013BDBB2002B34D172
:102D4000022799006918FF314A7C7F2A00D1A4E04C
:102D500053488446805C44B2002C5BDA41265A1CFE
:102D6000D2B290002818FF30447C019000967F2C4E
:102D700002D06646365D009666464020365D0642C5
:102D800036D1123C012C0CD860460233DBB24433FE
:102D90009B005B5DC35C4020034202D08B7C013B07
:102DA0008B741300CDE70023CAE708787F2803D08F
:102DB000385C04397F28BFD999006918FF31487CF5
:102DC0007F280ED02027265C3E4204D0344E305C53
:102DD0000426304205D0887C4608B4460130604461
:102DE00088740133DBB29342E6D10132D2B292E76A
:102DF000009B5B0706D4009BDB07D2D58B7CD808F1
:102E00001B1ACDE7019B9B7B591C9B08CB18019992
:102E10008B73C6E7214CA25C0824224210D00133F8
:102E2000DAB29300EB18FF33597C7F29B9D06046A2
:102E3000415C3942B5D00621997405219973B0E7F8
:102E400038421DD018000130C0B202004432920056
:102E5000525D002AF7D001337F2A01D1DAB2A0E710
:102E60000F4CA25C3A42F9D080002818FF30827CD7
:102E70005208013282748A7C520801328A74EDE76A
:102E80001020024207D060464A7B825C3A4202D060
:102E90008A7C023A8A740133E0E7F7BDE8800300D8
:102EA0009780030070B50400FFF7D2FB2000FFF706
:102EB00071FC23000022FC330100DA601A619042A9
:102EC00026D02500224E11353368FF35934203D0BA
:102ED0002900204808F0EAFE2000FFF7D9FD200075
:102EE000FFF734FC2000FFF7FFFC2000FFF710FF86
:102EF0002000FFF711FDC4222B009200A1181A78C0
:102F0000502A07D97F2A08D00021134A134B1A6090
:102F1000080070BD04338B42F1D13368002B02D01E
:102F20000F481FF0ABFB2000FFF7BCFB3368002B02
:102F300003D029000B4808F0B9FE200021F040FB27
:102F4000064B094918681FF0EFFE41424141DFE797
:102F5000702700203F8003004E8003000400002003
:102F60007480030084800300747F0300F0B50500C3
:102F700089B002AFB96016003B6008F095FBAB6802
:102F80007B611423F81822F07CF814237860F81879
:102F900022F077F8032358437B68C0188300FB6056
:102FA0002C2B29D86B46F8682A30C008C0001B1AA1
:102FB0009D46002302ACFB60AA687B6929009B1A2E
:102FC00063607B682000A3613B680093BA683300AC
:102FD00002F070FD1A4E00217368200063616B6877
:102FE00073600AF0C5FA6369B860736000280AD09C
:102FF000022819D0134D08E0F8681C3021F009FAB6
:10300000041ED9D1CEE7E3681D68FB68002B07D00A
:103010000023BB60200021F016FABB68002B0BD107
:103020002800BD4607B0F0BD7B6805339B00E31860
:103030005D68FB68002BEDD12800FDF7ECF8C04679
:10304000902E0020880E03000122030030B51340AB
:1030500085B004004510002B14D128491D0088427A
:1030600010D0274988420DD0264B1500984209D030
:103070000323034009D1244A0168914205D126F077
:10308000AAF80500280005B030BD204A25002240DE
:10309000062A05D0002B08D11D4B22689A4204D184
:1030A00001A9200001F0F4F8EBE7200004F05EFC39
:1030B000184B984207D1FF23DB05E0180323984300
:1030C00018F08CF8DDE7144B984206D101AA694646
:1030D000200021F0B7FD019DD4E7104B984205D1A7
:1030E00001AA6946200026F00FFAF4E7022201A99E
:1030F000200022F0DCFA0028C4D0ECE7880E0300A0
:1031000004DB02000CDB020084FE0200070080FFEB
:10311000C0FE0200F0EC020074E40200180B030091
:10312000F7B506000F0000920193041E00D044681A
:103130003800431E984120180430800021F05CF9CB
:103140000C4B050003600C4B5B684360009B836085
:10315000019BC360002E05D03100A2000831103061
:103160001EF0AEFA002F02D00434A40067512800EC
:10317000FEBDC0468CDF0200902E002070B5060018
:1031800010200D00140021F037F9034B46608560D4
:103190000360C46070BDC04650DF02000048704745
:1031A000A0E00200F0B587B0039205910D9A039953
:1031B0000500521A0CA9097820200C00844339D04C
:1031C00030293BD00CA902910121802401911C409F
:1031D00036D0D40FA4186410171B002C37DD26003E
:1031E000019B0493B34200DD04966B68049A029934
:1031F00028689847049BF61A002EF1DC039B002BED
:1032000006D01A0005996B6828689847039BE41854
:10321000002F0CDDE419019EBE4200DD3E003200AD
:10322000029928686B689847BF1B002FF3DC2000C9
:1032300007B0F0BD074902911021C6E70649FAE739
:1032400001271F4001D11400C7E71700D6E700246B
:10325000D4E7C046CD820300DE820300F0B593B010
:10326000069318AB20CB04901B780F001600079331
:10327000CB070BD48B0703D1854B0A689A4205D044
:10328000380004F05BFC01274000074381231D4206
:1032900009D1079B302B06D11A9B1B9A934200DA67
:1032A0001A9200231B93380025F034FF0AAA13005A
:1032B000002806DDAB070FD52B231370123B04AAA1
:1032C0009B18EA0616D5022E0DD130221A70069AE6
:1032D00001325A7002330DE013006A07F1D5202243
:1032E0001A701923EBE7082E3CD130221A70AA0578
:1032F00035D4013300220AA91A705B1A0593AB0674
:1033000000D52C320EAB0B93102300210C931B9B8A
:103310000D91012B01DD40231D4304ABD9756B4694
:1033200040241B7E2C400392029322D03B0001914B
:1033300000960DAA0CA90BA808F046FA037807001E
:103340002D2B2DD104AAD3750D9B1B9A013B013760
:103350000D93012A00DD95E0002634004AE0069A2C
:103360000E32B6E7102EC5D130221A70069A1732E7
:10337000AFE70AAB019300963B000DAA0CA90BA87E
:1033800008F022FA1B9B07002600012B32DD0D9B63
:103390001B9C9C4215DA1C0013E00026340019E047
:1033A0001B9B012BD8DD0D9B1B9C9C4200DA1C0053
:1033B000172304AA9B181B78002B00D00134059B0F
:1033C000E4181A9BA342E8DD01261C1B2E4001D005
:1033D0002600002401239D432F330793002C09D09E
:1033E000103B0093002301941A002A490498FFF728
:1033F000D9FE04006B0621D5172104ABC9180B7840
:10340000002B0AD000230122009301920498FFF7B9
:10341000C9FE1A9B2418013B1A93059B002B0DD063
:10342000012301930023059A00930AA90498FFF74A
:10343000B9FE1A9B059A24189B1A1A931B9B012B01
:1034400000DD1A931A9B0D9A0193079B3900009394
:1034500004982B00FFF7A6FE2418002E09D0202385
:103460000093002301961A000A490498FFF79AFE78
:1034700024180B980EAB984201D020F0E4FF2000F6
:1034800013B0F0BD1B9C9C4298DA1C0096E7C04626
:1034900084FE0200857F0300F0B5060014000027BB
:1034A0008DB00D002B78002B1ED1A94208D26B1ACB
:1034B00004931A003068736898472900049BFF182A
:1034C0000B78002B00D13EE14B1C049320230025F8
:1034D0003022082104200893049B1B78002B07D17D
:1034E0000693013B079355E0252BDED00135D9E744
:1034F0002D2B05D12C3B1D43049B01330493EBE79B
:103500002B2B01D1293BF6E7202B01D10543F3E713
:10351000212B01D10D43EFE7302B23D000230A21CB
:103520000693049B1B781A00303A092A1ED92E2BC9
:1035300050D1049A049B527801332A2A1FD0049355
:1035400000230A210793049B1B781A00303A092AAA
:1035500020D8079A4A43D318303B0793049B013382
:103560000493F0E7402308921D43C5E7069A4A43B7
:10357000D318303B0693049B01330493D1E7049B9B
:1035800002330493236804340793DB43079ADB1761
:103590001A400792049B1B786C3B59425941049B8B
:1035A0005B1804931B780593002B00D1CBE0642BB0
:1035B00000D1A1E022D8502B29D00ED8453B022BB8
:1035C00000D8A9E001220499306873689847013750
:1035D000099452E001235B4284E7059B622B3CD0B7
:1035E00057D8582BEED1231D0993069B01950393C1
:1035F000089B029341230093313B7BE0059B712B99
:1036000053D00FD8672B00D886E0702BDAD1231D5A
:103610000993069B01950393089B029361230093F2
:10362000513B67E0059B752B5AD0782BEFD0732B5D
:10363000C8D1231D24680993002C49D0079B01336E
:1036400003D120001FF0B4FB0790069B079A01935B
:10365000089B210000932B000BE0231D0993236896
:10366000002B0ED0069B04220193089B3749009340
:103670002B003000FFF796FD3F180499099C01319B
:103680000FE7069B05220193089B314900932B000D
:10369000EFE7231D099323680BA90B70069B0122FA
:1036A0000193089B00932B00E3E7231D0BA92068DF
:1036B000099320F00AFF079B0100013301D10B9B06
:1036C0000793069B079A0193089B00932B00D0E772
:1036D000069B06220193089B1E4900932B00C8E716
:1036E000231D0993069B01950393089B0293612375
:1036F0000093573B00220AE0231D0993069B0122F9
:103700000393089B0195029361230093573B216823
:10371000300021F031F8AFE7072307349C43230042
:10372000206861680833099319F0B0FB079B011CFE
:103730000293069B059A0193089B300000932B008F
:1037400021F08EF898E738000DB0F0BDBB82030081
:10375000C0820300C6820300032230B5024001216B
:10376000002A04D1084C03680D00A3420AD00B00C4
:1037700003401D1E06D1002A04D1036803481B1A0A
:103780005D425D41280030BD14DB020084FE020072
:1037900010B50400FFF7E0FF012300280AD102332F
:1037A0002340022B05D105480440063C601E84419D
:1037B000E0B203000120184010BDC046070080FFA2
:1037C00010B521F05EFF034902000348FDF7DCF964
:1037D000FCF721FDEF82030074CE020010B5040057
:1037E000102020F009FE044B84600360034B43600B
:1037F0000023C36010BDC046C8E70200D94B0200D9
:10380000F7B504000E00019301208B180A00002177
:103810000093009B934212D82725002900D0053D34
:10382000224F2A003900200021F062F8009B9E42BE
:1038300014D32A003900200021F05AF8F7BD13787C
:10384000272B08D0223B5D426B41DBB20132002BBB
:10385000DFD02725E4E700230100F7E7327895421F
:1038600005D12A001249200021F042F81AE011493E
:103870005C2A14D01F2A09D97F2A15D0019B002B5E
:1038800002D053B2002B07DB3900ECE70A490A2AC1
:1038900005D00A490D2A02D0092A05D1084920007D
:1038A00020F05BFF0136C1E70649DCE7EA8603004A
:1038B000E9860300ED860300F0860300F38603002B
:1038C000F6860300F9860300194B70B506000D005B
:1038D00098420ED14968A868FDF708FC041E08D07C
:1038E000280023F0BBF9E000002306242B602043CE
:1038F00070BD102020F080FD6968040081600660C2
:10390000A868FDF7D5FB6B686060591C2B6899426D
:1039100009D1AB68E3600023E268A168200053543A
:10392000AB602B60E4E7A86820F07CFDE060F2E784
:10393000C0FE020070B504000D00002A05D0FDF79E
:1039400007FCC3000620184370BDFDF7CFFB00281D
:10395000F7D12A002100024821F00CF8F4E7C04614
:10396000C0FE020010B50A000100024821F002F872
:1039700010BDC04614E10200094B10B50340062BF0
:1039800001D1C00810BD830708D1064B02689A42D6
:1039900004D18168C068FDF7DBFBF3E7FFF710FF98
:1039A000070080FFC0FE0200064B10B50340062B47
:1039B00003D1C00820F089FD10BD8368C0680B608A
:1039C000FAE7C046070080FFF0B50F00002689B077
:1039D000110005001C00380000960323320009F096
:1039E00039FB0E20B7420FD0012F0FD102AA1021B0
:1039F00004A805F0E5FF216802A8320003F0CEFF1D
:103A000004A92800FFF760FF09B0F0BD2068830714
:103A10001BD1134B02689A4217D104A9FFF7C4FFC8
:103A2000104B060020680340062B0CD1C00820F084
:103A30003DFD04001020049F20F0DEFC056087603F
:103A4000C6604460E0E74468F4E704A9012204F09A
:103A50002FFA002205990498FFF76CFFD4E7C046BF
:103A600014E10200070080FFF0B58BB004900868F5
:103A70000D000692079303F079FF0600686803F0D3
:103A800075FF864202D06868FFF79AFE08A9286889
:103A9000FFF78AFF040009A96868FFF785FF089A05
:103AA0000590A3180393049B2700022B19D9AB6838
:103AB0001E498B4206D0012130000091210008F000
:103AC0002DF80700049B032B0BD0EB68174A934299
:103AD00007D00122210000923000089A08F01EF859
:103AE0000390039B059AD91B069B38000093099B02
:103AF00020F021FF002809D1079B0138002B0FD0AF
:103B00000B490C4820F054FCFCF785FB0A4B9E4205
:103B100008D10100200023F094F944000120204343
:103B20000BB0F0BD041B6400F8E7C046880E03002C
:103B300012870300ECCE0200C0FE0200F0B58DB08B
:103B40000400039103F012FF04A906002000FFF710
:103B50002BFF0190039883071ED10368314A9342DB
:103B600017D106AA05A921F06DF800242500059BB0
:103B70009C4220D32900002508A823F05BF80A9C6A
:103B8000059B9D4236D308A93000FFF79DFE0DB07E
:103B9000F0BD254A934208D023480022C368012182
:103BA0000293029C03ABA047039006AA05A90398C1
:103BB00025F0AAFCD9E7069BA700D85903F0D6FE4A
:103BC000864205D019491A4820F0F2FBFCF723FB86
:103BD000002C01D0049BED18069BD859154B0340CF
:103BE000062B05D1C00820F066FC2D180134BEE775
:103BF0008068FAE7002D06D02000049A01991DF094
:103C00005FFD049BE418069AAB00985807A9FFF7DC
:103C1000CBFE079A010020001DF052FD079B0135E5
:103C2000E418ADE774E40200180B030026870300D4
:103C300074CE0200070080FFF0B5070087B0086867
:103C40000D0003F093FE04A906002868FFF7ACFE00
:103C500005A904006868FFF7A7FE03902000022F63
:103C600007D901230093AB68049A2100300007F0C4
:103C700055FF059A041B049BA418064D9C4205D8C9
:103C800003991DF0F7FC002800D1034D280007B070
:103C9000F0BDC04604DB02000CDB020073B50D0072
:103CA000060069462868FFF77FFE01A904006868DE
:103CB000FFF77AFE0100022E02D908480DF090F9B4
:103CC000019A0098064D824206D8801A20181DF0ED
:103CD000D1FC002800D1034D280076BD00870300E9
:103CE00004DB02000CDB0200F0B58FB00790106817
:103CF0000C00160003F03AFE0690012C31D07068DB
:103D000003F034FE069B834202D07068FFF758FD33
:103D10000DA97068FFF748FE0D9B089009930DA947
:103D20003068FFF741FE0D9B0B900493079B012B1E
:103D30001CD1049B5D1E01235B420A9300242700D3
:103D4000049B03940593059B002B13D1039B002B2D
:103D500023D1214B069A0E209A4200D01F480FB063
:103D6000F0BD072309931E4B0893D8E701230025D4
:103D70000A93E3E70B9B09995A19012308980093CA
:103D800020F0D9FD002816D1039B002B19D1079BE9
:103D9000002B09D12F00049B5C1E049B0134E21B05
:103DA000934212D13068DAE7079B2C00012B0AD02E
:103DB00001232F0003930A9BED18059B013B0593FC
:103DC000C1E72C00F7E7039FE7E70B9B0698D9199B
:103DD00020F0D0FDC3E7C046C0FE020004E10200AF
:103DE0008F870300F0B589B0049008680D0003F0D8
:103DF000BDFD0700686803F0B9FD874202D068681E
:103E0000FFF7DEFC06A92868FFF7CEFD060007A92C
:103E10006868FFF7C9FD069A0590B3180393049BE1
:103E20003400022B19D9AB681D498B4206D0012101
:103E300038000091310007F071FE0400049B032B51
:103E40000BD0EB68164A934207D001223100009252
:103E50003800069A07F062FE0390079B0025002BAE
:103E600012D1039B2000191B22F0FAFF01304500FC
:103E70000120284309B0F0BD059920001DF0FAFB90
:103E8000002808D101353400079A039BA618B342D5
:103E9000F2D26D00ECE7200022F0CAFF0600F2E744
:103EA000880E0300F0B58BB00E000700039203F0FC
:103EB0005DFD0500300003F059FD854202D0300061
:103EC000FFF77EFC05A93800FFF76EFD06A9040088
:103ED0003000FFF769FD069B0200002B05D11A494F
:103EE0001A4820F065FAFCF796F919498D4227D156
:103EF0000E210791089109910399002922DD079766
:103F0000039920000091059920F015FD002811D09B
:103F1000071B3A002100280020F02CFD059B069984
:103F2000DA1B521A7918079061182800089620F0B9
:103F300021FD099007A9032001F05CF90BB0F0BD49
:103F40000449D6E70997DBE76B870300ECCE020054
:103F5000C0FE020004E1020010B50100014820F09B
:103F60001AFE10BD816E020010B50100014820F05C
:103F700012FE10BD936E0200F7B50600080001A9FD
:103F8000FFF712FD019B0500002B01D11348FEBD78
:103F9000134B04009E4207D10027019A631B9A42EB
:103FA00011D8002F07D1F1E70E4B9E42F4D0019AB1
:103FB000631B9A4201D80C48E9E72078B0470134E6
:103FC0000028F4D1E2E7207805F070FD002803D046
:103FD0002078B047071ED9D00134DEE704DB0200A9
:103FE000159B00002D9B00000CDB020010B50100AA
:103FF0000148FFF7C1FF10BD959A000010B5010000
:104000000148FFF7B9FF10BDAD9A000010B50100DF
:104010000148FFF7B1FF10BDC59A000010B50100BF
:104020000148FFF7A9FF10BD159B000010B5010066
:104030000148FFF7A1FF10BD2D9B0000F0B585B032
:1040400006000C00170003F091FC694605003000E3
:10405000FFF7AAFC0600042F23D1A30716D1124BA9
:1040600022689A4212D101AA2100009809F088F82A
:10407000002802D10D480CF0B3FF0199029A2800E4
:10408000521A711820F076FC05B0F0BD0023220012
:104090000099280003F02AFE335C01205B001843DE
:1040A000F2E70020F0E7C046E8E4020035830300B1
:1040B00070B51D008AB0002968D01868344C030020
:1040C0002340062B05D083071FD1324B02689A424A
:1040D0001BD10239012953D806A9FFF765FC060058
:1040E00028680440062C0ED1C00820F0DFF9040037
:1040F0001020069D20F080F9274B85600360C66084
:1041000044600AB070BD4468F2E7012938D8012242
:10411000104210D04410210006A822F08BFD089B0D
:1041200022000021180001931DF05CFB06A91A482B
:10413000FFF7CAFBE5E703A921F0B9FA002805D08B
:10414000049A0399144820F015FCDAE7286803F074
:104150000FFE1021002800D0411006A822F053FDC8
:1041600028680CF091F9040020000CF0D9F900281F
:10417000DCD003F0E3FCC1B206A822F0CFFDF3E7E8
:104180000649074820F014F9FCF745F80548B8E758
:10419000070080FFC0FE020014E102001B83030041
:1041A00074CE020004E1020073B50400080001A906
:1041B0001600FFF7F9FB0500042E06D10300019A53
:1041C0000749200020F094FB73BD0649200020F031
:1041D000C4FA0123019A29002000FFF711FBF3E73D
:1041E0007B870300653E0300F7B502001C4B05000A
:1041F0000C001A401E00062A19D10B40062B04D1D0
:10420000441A60426041C0B210E0C00820F04EF98C
:1042100007002640062E0CD1E00820F047F9002FB9
:1042200009D0002807D0874205D00020FEBD47688E
:10423000EFE76068F3E769462800FFF7B5FB01A9DF
:1042400005002000FFF7B0FB009A019B01009A4295
:10425000EBD128001DF00EFA44426041D3E7C0467E
:10426000070080FF084B07B50340062B08D08307E3
:1042700004D10268054B92699A4201D0FFF7A0FA77
:1042800001A9FFF791FB0EBD070080FF4948000020
:104290000A4B13B503400C00062B08D0830704D14A
:1042A0000268074B92699A4201D0FFF789FA01A987
:1042B000FFF77AFB019B236016BDC046070080FF15
:1042C00049480000F0B59BB00B900C0007921021FC
:1042D0000EAA12A8099305F073FB079B9C4208D312
:1042E0000B9A12AB13CB13C21B6813600B981BB055
:1042F000F0BD21787D2914D1631C0593079B621CB6
:10430000934208D961787D2905D112A822F006FDD3
:10431000059C0134E1E7B549B54820F049F8FBF7C1
:104320007AFF7B2904D012A822F0F8FC0594EFE76D
:10433000079B651CAB4243D961787B2904D112A845
:1043400022F0ECFC0595E3E72B007D2903D0212921
:1043500001D03A291FD100252E001A78212A23D016
:104360000022049200211A7805913A2A31D15A1C70
:104370005B7805927D2B30D01300012207998B4288
:104380001ED219787B291FD101320133F6E7079A33
:1043900001339A4214D01A787D2A03D0212A01D001
:1043A0003A2AF4D11E00D8E707995A1C914209D93C
:1043B0005A780492723A012A04D802339942D1D829
:1043C0008C49A9E78C49A7E77D29DED1013A002A6B
:1043D000DBD1059A0593069205E0079B059A934267
:1043E000EED900230693059B1B787D2B01D08349D2
:1043F00092E7002D45D000232878169305F062FB44
:104400002C00002822D0099B1B680893002B01DD9B
:104410007B4981E716AA3100280020F074FA209A1F
:10442000169B013A04009A4202D87649764874E70E
:10443000219A01339B009F580122099B52421A6026
:10444000B4422ED271480CF0CBFD0134B44204D2F8
:1044500023782E2B01D05B2BF7D1611B0122280082
:10446000FFF768FA002205000100229807F040FFDC
:10447000002804D1290066481FF093FF4FE74768E2
:10448000DEE7099B1B68002B01DA624944E7209AAA
:10449000013A9342C9D2013321999A005758099A97
:1044A0001360069B002B16D1049B002B58D010AA3A
:1044B000102116A805F084FA049A3900733A531EA5
:1044C0009A4110A8D2B203F069FA16A95248FFF730
:1044D000FBF9070002E0049B002BE8D101235B42BB
:1044E0000D931093069B002B00D1B6E007F0DCF88B
:1044F000229B059A0293219B06990193209B16A863
:104500000093099BFFF7DEFE16A822F0F6FB0026BB
:10451000179B0400C3180A9303780493B34213D083
:104520003E4D190028001EF091FBB04200D06FE113
:104530006678002E17D0310028001EF087FB002877
:1045400000D067E106000490237808932B2B0CD051
:104550002D2B48D00425202B08D00025089506E0F7
:1045600073230493A3E70496EEE70225013423782E
:10457000232B02D1133B1D4301342378302B07D169
:10458000049B002B01D13D330493002E00D1303623
:104590000DAA0A99200020F0B6F9037806902C2B7A
:1045A00004D10C3B1D43030001330693069B1B788B
:1045B0002E2B06D1069810AA01300A9920F0A3F9F3
:1045C0000690069B1C78002C07D0210014481EF092
:1045D0003DFB002800D022E10400069B1B78002B45
:1045E00022D0104998E60025C0E7C0464984030060
:1045F000ECCE02008A84030071840300A2840300CD
:10460000C68403001085030044CB02002985030003
:1046100080CB020046850300C0FE020090850300A7
:1046200095850300A585030016A822F017FB049BBF
:10463000002B08D13800FFF7ABF83C230493002887
:1046400001D002330493002E00D12036089B002BAA
:104650000CD0732C06D174495EE6069D2C002E000A
:104660000895E7E7632C01D1704955E6049B3D2B83
:104670001FD05E2B1FD03C2B01D13B3B1D4338008C
:10468000FFF76AF800282DD0632C50D026D8472C8D
:1046900013D8452C26D2002C40D0252C22D038000F
:1046A00020F0EFFF2200030061496248FCF76CFA3A
:1046B00035E64023E2E78023E0E7582C53D0622C14
:1046C000EDD1002303930D9B0222029361230196F7
:1046D000009539000EA8FEF7C1FD19E6672C17D822
:1046E000652C1BD33800FFF753F800286CD0002C42
:1046F00056D06E2C54D0472C3FD8452C41D2252C77
:1047000050D0380020F0BDFF220003004A49CCE71A
:104710006F2C1AD0782C26D06E2CC0D10023039396
:104720000D9B01960293009561230A22D1E7380080
:1047300003F004FA0D9B16A90870012201932B00C7
:1047400000960EA8FEF72EFDE2E5EB0602D58023CB
:104750009B001D43002303930D9B0196029300953C
:1047600061230822B5E70022230003920D9A173B2C
:104770000292019600951022ABE72300653B022BC5
:10478000BFD8380003F03EFA109B220002930D9B25
:10479000011C01932B0000960EA820F061F8B7E5EC
:1047A0006724EEE73800802403F02CFA234916F042
:1047B00041FA109B640002930D9B2C430193011C52
:1047C000009623006622E7E7049B3D2B01D11C499C
:1047D000A2E5002C01D0732C13D116A93800FFF7E5
:1047E00057FD109B0100169A002B00DA1092109BC7
:1047F0009A4200D916930D9B00960193169A2B00AE
:104800009FE7380020F03DFF220003000D494CE7F0
:10481000013499E633000234049E049394E6069B27
:1048200001330693D9E6C046BE850300EA8503003E
:104830001D860300ECCE02004E8603000000C84235
:1048400082860300B7860300F0B5A1B004000D0016
:104850000D920A2800D0E6E1073C0692144038D1B8
:104860001368BD4A93422ED10FAA10A9069820F0D2
:10487000E9F90694109B11A908930F9B280009934E
:10488000FFF792F800230A900C93AB0706D1B34AC6
:104890002B689B1A59425941CBB20C9314AA102190
:1048A00018A805F08DF8119A002794460A9B0A9CD7
:1048B00063440593059BA34212D8089BBB4200D1D9
:1048C000A7E1A749B1E0A74A934202D10F941094FF
:1048D000D0E70DAB0F930123109300230693C9E794
:1048E0002178252904D018A822F018FA0134E1E72C
:1048F000059B661CB34205D89B499C481FF058FD98
:10490000FBF789FC6178252904D118A822F006FA62
:104910003400EBE7002528290ED1A01C06003378CF
:10492000292B1CD1311A0122FFF704F80100069847
:1049300008F010FB05000136002334004022002659
:10494000302104200B9320330793059BA34219D9F0
:1049500023782D2B0AD12C3B1E430134F5E7059B10
:10496000B34201D88249C8E70136D8E72B2B01D1E1
:10497000293BF1E7202B01D10643EEE7232B49D059
:10498000302B44D000231293059BA34245D801232A
:104990005B421393059BA342AED923782E2B15D1EE
:1049A000059B601C8342A7D963782A2B4FD1089AB4
:1049B0003B00BA4238D9099A9B00985803F0BEF8D8
:1049C000013713900234059BA34295D9002D07D1DE
:1049D000089A3B00BA4227D9099A9B009D58013793
:1049E0002278672A5DD8652A00D3D1E0582A75D08D
:1049F00035D81300453B022B00D8C9E00A9B5D491E
:104A0000E41A009413005948FCF7BEF878E71643FF
:104A10000791A2E710230B939FE723782A2B0FD14E
:104A2000089A3B00BA4202D85349544866E7099AAB
:104A30009B00985803F082F8013712900134A6E7E2
:104A4000200012AA05991FF05EFF04009FE70023D3
:104A500013AA059913931FF056FF0400B3E7632AC6
:104A600049D0642ACAD103222B001340022B0AD159
:104A7000434B2B40062B06D0FF23DB05E818904361
:104A800009F072FC0500139B0A220393129B009607
:104A90000293079B01936123290014A8FEF7DEFB14
:104AA00024E7732A16D8722A00D381E0692ADAD063
:104AB0006F2AA3D10B9B002B02D084239B001E43A3
:104AC000139B00960393129B08220293079B01936A
:104AD0006123E1E7752AC6D0782A8FD11300139A93
:104AE000173B0392129A0292079A01920B9A16436D
:104AF00000961022D0E7224B2B40062B05D0AB07A7
:104B000016D1204B2A689A4212D11CA92800FFF71F
:104B1000BFFB1C9A0100012A01D01B4985E7129BAB
:104B2000019320230093330014A8FEF73BFBDDE63E
:104B30002800FEF711FE00280BD0280002F0FEFF2F
:104B4000129B1CA9087001932023012200933300BB
:104B5000EAE70E4969E7C04674E4020014E1020086
:104B600014840300E802030066830300ECCE020015
:104B700078830300DF8303008E83030074CE02007A
:104B8000070080FFC0FE0200B5830300CE83030050
:104B9000280003F037F8139B22780293129B011C24
:104BA0000193079B14A8009333001FF059FE9DE664
:104BB00016AA10211CA804F003FF23781A00723AE9
:104BC00050425041C2B2722B09D00C9B002B06D030
:104BD000AB0704D1544B2968994200D10422290023
:104BE00016A802F0DBFE139A1D9B002A00DA13932D
:104BF000139A9A4200D91A00129B1E9901932023FE
:104C000014A800933300FEF7CDFA1CA822F026F872
:104C10006CE60C9B4448002B00D1444818A9FEF7D1
:104C200053FE050019E0080002F0A0FE16A90600D8
:104C30002800FEF7B9FE0700072C22D118A90D980D
:104C400002F0BAFF0025A84207D01899A94207DC54
:104C5000364B0E359E4200D0354D280021B0F0BDB8
:104C6000169B1CA8594321F0E5FF1E9B169A05933D
:104C700000930121189B380024F09BF91CA93000F7
:104C8000CDE70D9802F072FE86420FD11CA90D9857
:104C9000FEF78AFE1C9D05901D2C16D8192C3AD2C1
:104CA000052C21D0122C1FD00025D6E71E4B002545
:104CB0009E42D2D101221CA90D9820F0F8FCA842F6
:104CC000CBD01C9B1D9D0593E6E71F2CECD1012347
:104CD000059A009316992B0038001FF02CFE154DF5
:104CE0000028BAD1144DB8E7169B1CA8E91821F08A
:104CF000A1FF1E9B169A3900180006931CF0E0FCD9
:104D0000169A1E9B94460693634418002A00059940
:104D10001CF0D6FCB2E70095059B169A39002000DE
:104D200024F07BF9DBE7C04614E10200C0FE02007C
:104D300004E102000CDB020004DB020070B50C0091
:104D40008AB0050004A920681600FEF72DFE002396
:104D50000593049B0100C218029605AB06A80194B6
:104D60000095FFF7AFFA06A90248FEF7ADFD0AB0BD
:104D700070BDC046C0FE0200F0B5050087B00868EF
:104D80000C0002F0F3FD0090012D2AD96668022D77
:104D900028D0A06802F0D2FE05000021080024F00F
:104DA0009CFB04A901902068FEF7FEFD049B040013
:104DB000C7183F4B9E423FD1A7422CD9207804F020
:104DC00069FE002811D1A74225D9002D0FD121005D
:104DD0003A1B00981FF0CEFD010001980AF0BCFEBE
:104DE00019E0334E01256D42D7E70134E4E7260090
:104DF000307804F04FFE002802D10136B742F7D1D7
:104E00002100321B00981FF0B5FD010001980AF047
:104E1000A3FEB74202D8019807B0F0BD3400207855
:104E200004F038FE002802D00134A742F7D1EB1776
:104E30005B1BDB0FED1AC6E7300002F097FD009B0D
:104E4000834202D03000FEF7BBFC05A93000FFF71B
:104E50001FFA059B0390002B17D1164916481FF027
:104E6000A7FAFBF7D8F93E002100321B00981FF08B
:104E700081FD010001980AF06FFEB742CBD9059B76
:104E8000F418EB175B1BDB0FED1A2600059B029352
:104E9000002DE8D0029BF3189F42E4D3029A0399B5
:104EA00030001CF0E7FB0028DED00136F0E7C046FA
:104EB000880E03006B870300ECCE0200F0B50D00F6
:104EC0008BB0022803D8FFF757FF0BB0F0BD08687E
:104ED00002F04CFD08A9049028686C68FEF764FD98
:104EE0000090A86802F02AFE431C07000021180069
:104EF000059324F0F2FA354B05009C4202D1344868
:104F00000CF06EF809A92000FFF7C2F9099B069082
:104F1000002B05D12F4930481FF04AFAFBF77BF9E7
:104F2000089A3C009446009B63440293BB000393A1
:104F3000099B0193019A029B9E1A002C0BD0009BA7
:104F4000B34208D8019A069930001CF093FB002860
:104F500022D0013EF1E7EB68BE009C19009A029B4B
:104F600000999A1A04981FF005FD2060002F11D0B7
:104F7000059BDC1BEB68A70099193A0018001CF090
:104F8000E1FB6B6800211A1BEB689200D8191CF03A
:104F900029FCAC60280098E7039AEB6894466344C8
:104FA0000793029B04989A1B019B013FD21AF118A8
:104FB0001FF0E0FC079B02961860E3171B1BDB0F3A
:104FC000E41A039B043B0393B2E7C046880E030038
:104FD000808703006B870300ECCE020010B54A689F
:104FE00001491FF085FC10BD9687030070B51500C0
:104FF00012680C008368002A0AD1CC000621181D13
:10500000214307F075F9002801D043682B6070BD7B
:105010001A79180092070BD50C4A9342F7D10C4E1F
:10502000736C002B03D1012023F076FF7064706C49
:1050300006216A68E4002143002A03D123F0AEFF71
:105040000023E3E723F0A0FFFAE7C0464C07030084
:10505000902E0020F8B50625C3001D43070001224D
:1050600029000C4807F044F906004068002810D1D8
:105070000C301FF0C1F9084B0400036047600120A9
:1050800023F04AFF2A00A0606E2123F07DFF20005C
:105090007460F8BDB42E0020FCE3020010B50321BB
:1050A000014807F06BFF10BDB02E002010B50C00BA
:1050B0000621C00001430122024807F019F94460AB
:1050C00010BDC046B42E002073B50625C3001D4395
:1050D0000600002229000F4807F00AF9041E17D124
:1050E000020029000C4807F003F9041E11D06A469B
:1050F000082140680BF04CF9009B002B08D00021E0
:105100006A46080024F027FA61683000FFF7CEFFF6
:10511000606876BDB42E002040E3020070B50E003A
:105120001049040000251FF018FB73689D420AD344
:10513000012B03D10C4920001FF00FFB0B4920006D
:105140001FF00BFB70BD002D03D0094920001FF09C
:1051500004FBAB00F31801229968200002F01EFC4A
:105160000135E2E7AE870300A7870300D39703006A
:10517000A487030070B50D0001281ED0002803D0BD
:10518000022807D0002004E04B680E48002B00D115
:105190000D4870BD00260D4C6B689E4203D3012064
:1051A00064002043F5E7B300EB18996802200BF088
:1051B00009F8401024180136EEE74B685B001843ED
:1051C000E7E7C0460CDB020004DB02006CE40200EF
:1051D00010B5040010201FF00FF9044B8460036029
:1051E000034B43600023C36010BDC046C8E7020004
:1051F000054C020070B506000D000C48002E0FD0C3
:10520000B41CA40020001FF0F7F8094A0300026054
:105210004660002D04D00022083C944201D11800C1
:1052200070BDA858991888600432F6E76CE4020053
:1052300074E40200F0B5040085B00D0016000728E4
:105240004CD003D8052824D0002144E00300193BAA
:10525000042BF9D8080002F089FB300002F086FB2D
:105260002C4B426A9A4205D030002B4920F084F939
:10527000061E0CD0330029007268083100920833F2
:105280006A68200007F0B6FF2449002823D124498A
:1052900021E0100002F06AFB1F4902F081F9011EB3
:1052A00019D06B68726800219818FFF7A3FF0700F8
:1052B00029006B6808379A000831040038001CF098
:1052C000FFF9310068687368800038189A00083167
:1052D0001CF0F6F92100080005B0F0BD03A910008C
:1052E00002F06AFC00218842F5D0039888420FDD65
:1052F0006B685843FFF77EFF040023002800083343
:1053000000930830039B6A68042123F052FEE1E712
:105310000449E0E7D151000074E402000CDB020014
:1053200004DB02006CE4020030B5040085B0042AFE
:105330002DD103250D4020D1164B0A689A421CD16D
:1053400001AA406807F01CFF002802D112480BF0A8
:1053500047FE019B02982900C01AFFF74BFF05008A
:1053600021006B6808319A00019B08309C000919E4
:105370001CF0A6F9280005B030BD0A0000236168C2
:10538000206802F0B3FC023080000059F3E70020EF
:10539000F1E7C046E8E4020035830300F0B50C00F5
:1053A0001100002285B01E0000920123200007F0AA
:1053B00051FE184D002C1DD03568AB0703D1164B9C
:1053C0002A689A4216D010201FF016F804003068A0
:1053D0000BF05AF800250426039003980BF0A0F870
:1053E000071E0AD128002100FFF704FF0500200056
:1053F0001FF029F8280005B0F0BDAE4205D8F10035
:1054000020001FF00FF804007600AB001F5101359B
:10541000E3E7C0466CE4020074E4020070B50400E7
:105420000D0010491FF099F969680122200002F06F
:10543000B5FA0D4E200031001FF08FF9A968012246
:10544000200002F0ABFA310020001FF086F9E96875
:105450000122200002F0A2FA044920001FF07DF989
:1054600070BDC046A9870300A4870300D39703003B
:1054700070B5060010200D0014001EF0BDFF034B98
:10548000466085600360C46070BDC046E8E4020009
:10549000002313B5044A046A09050093890C8A584D
:1054A000A16B1FF09AFC13BD24E50200F0B587B094
:1054B00000931B7804000F0002927C2B05D18268B8
:1054C000525C002A01D09A2A14D11A006B3A022A9F
:1054D0002DD8A568E8190378032B5ED104A9666866
:1054E0001FF047FDAB19984206D167600499200070
:1054F0001FF0A3FC07B0F0BD0378032B4DD105A925
:105500001FF037FD009B1B786B2B04D1049B059A81
:1055100013430493E6E76C2B03D1049B059A534095
:10552000F7E76D2BDED1059B049A1340F1E76E2B54
:1055300004D0022219009143702966D1A368D819BA
:1055400001930378032B28D1636804A903931FF008
:1055500010FD0600019B039A9B189E42C5D0B378AC
:10556000B01C7578032B18D105A91FF002FD0600A9
:10557000372D15D1059A1F2A0FDC4149049B114193
:1055800099420ADBC021090611418B4205DB934099
:105590000493049A53005340DCD5029D00224FE04F
:1055A000392D08D1059B1F2B01DD1F230593049B7B
:1055B000059A1341ECE72F2D03D1049B059A9B1804
:1055C000E6E7302D03D1049B059A9B1AE0E7312DC5
:1055D00009D10599049806F057FE0028DDD1059BF6
:1055E000049A5343D4E7332DD7D00599352D06D1EE
:1055F0000029D2D0049823F08AFA0490C9E7002940
:10560000CBD0049823F093FAF7E7752BC5D1A368A4
:10561000D8198378032BC0D1457802301FF0B8FC2D
:105620002F2D01D1049060E7302D06D14042430078
:105630000490584000D458E7AFE7C043F2E7320087
:10564000561CED09FBD16368DB1B01930135DB09B7
:10565000FCD1023252193900200021F074FB040001
:10566000009B029A1B7831001A33037001301FF03F
:1056700036FB701C2018019A29001FF030FB39E717
:10568000FFFFFF3FF0B597B00890C02000254023F2
:105690000AAC80000F00160025706360A5601EF044
:1056A000B8FE2561E0606561A561E5612762E5629C
:1056B000A84218D1C349C4481EF07AFE0023060050
:1056C00013930D981EF0BFFE002E00D1E0E10023E1
:1056D000BA6B39683000FBF7C7FA380023F0E5FFF2
:1056E0003000FAF798FD321E03D00422022E00D0BB
:1056F000033A0026B5490096920052582000B96B33
:1057000033001FF06AFB10201EF076FE102104000B
:1057100021F079FA0AADAB68002B00D194E12A7828
:10572000002A00D090E1013B0C32AB605343EA68A1
:10573000A649D318DA785D689200525802921A6826
:105740009B681202120A0393029B05925B780693F0
:105750000F23069A13400493002D01D1636803932D
:105760003023069A1340102B27D0202B66D0002E12
:1057700000D042E10123069A1A400992099A02993F
:105780002A405300CB1880215B88490107931B0BEB
:105790001B038B4200D048E13B00079940331B7844
:1057A0000905090D8B4200D026E1002A00D11EE137
:1057B000380023F0EAFF0135E0E7002D0BD180210E
:1057C0003800029B6A009A1849014030049BAB42A2
:1057D00005D801269EE7002EF1D100269AE75388CE
:1057E0001E0B36038E4214D106781B0502321B0DA8
:1057F0009E4221D121000AA81FF02EFB0028ECD1E7
:105800003B0040331B78062B00D035E170497148CE
:1058100052E7049A6B1C9A4206D9039A05990092A2
:105820000AA8029A1FF0D9FA029B6D005D196988D7
:105830000AA8FFF72DFED0E70135C7E7002E0BD0F1
:10584000029A6B009B5A1B0B032B48D101212000AD
:1058500021F041FA00230370029B6E009E19049B05
:10586000AB4240D8002380201E004001049A93429E
:1058700069D3A368039A981800230693A268636803
:10588000D31898426DD3029B1B781F2B01D02E2B6F
:1058900000D10126029B597840230B401800434257
:1058A000434149B25B421E40002900DA012600252F
:1058B000039B0495D0180795069B9D4258D1002E56
:1058C00002D1079B012B63D00499200021F06FFACD
:1058D000029B059A03992000FFF7E8FD7DE7012D63
:1058E00000D876E78CE78021738849011A0B1203F0
:1058F0008A4226D13A0040321278DBB29A421CD159
:10590000082A07D1B96CF86CFBF722FC01002000D3
:105910001FF059FA002D0AD1029B5B787F2B06D924
:105920000E9B2000591C06930E911FF086FA38003A
:1059300023F02BFF0135023691E7002D00D148E717
:105940005EE76B1C69E702995A008A185288110BAE
:105950000903814203D1D2B2072A00D901260133BB
:1059600084E7069B0121013306931FF0DBF985E7ED
:10597000049A037801320492002B04D0079B013370
:1059800007930023049301211FF0CCF9013593E71D
:10599000A268039B944663441D00069B9E4200D16F
:1059A0001BE72B78002B07D1A3680122E91A2000FE
:1059B00021F009FA0136F0E7280001211FF0B2F9C1
:1059C0000500F7E7B087030040CC020024E50200A1
:1059D000D887030008CB0200012D00D1F9E601238E
:1059E0002A001A402ED0049A032A0DD008E721007D
:1059F0000AA81FF031FADEE60135049B022BEBD139
:105A00000023012D00D1E4E6069A691ED20705D5D0
:105A1000029A9288120B012A00D16908012900D04C
:105A200056E7002B00D1D8E652E7039A0599009279
:105A30000AA86B1C029A1FF0D0F907990AA8FFF771
:105A400027FD67E61300DFE72B78002B00D031E657
:105A50003B0040331E78002E00D0D1E66368002B57
:105A600000D1CDE62B692000591C1FF0E6F9A36890
:105A70006B62EB69AB6224E6022B01D10949C6E6F1
:105A80000B3B09480949012B00D815E6084913E6E4
:105A9000380023F00AFE089A13AB13CB13C2089800
:105AA00017B0F0BDEA870300F0CD02001E880300A6
:105AB00045880300F0B5160042688FB094460693FF
:105AC0008369CA6805938B68826063445A1C42608C
:105AD0001A78040001929A1C42605A78049100924C
